{
  "abi": [
    {
      "type": "constructor",
      "inputs": [
        {
          "name": "_entryPoint",
          "type": "address",
          "internalType": "address"
        },
        {
          "name": "owner",
          "type": "address",
          "internalType": "address"
        }
      ],
      "stateMutability": "nonpayable"
    },
    {
      "type": "receive",
      "stateMutability": "payable"
    },
    {
      "type": "function",
      "name": "execute",
      "inputs": [
        {
          "name": "dest",
          "type": "address",
          "internalType": "address"
        },
        {
          "name": "value",
          "type": "uint256",
          "internalType": "uint256"
        },
        {
          "name": "data",
          "type": "bytes",
          "internalType": "bytes"
        }
      ],
      "outputs": [],
      "stateMutability": "nonpayable"
    },
    {
      "type": "function",
      "name": "getEntryPoint",
      "inputs": [],
      "outputs": [
        {
          "name": "",
          "type": "address",
          "internalType": "address"
        }
      ],
      "stateMutability": "view"
    },
    {
      "type": "function",
      "name": "nonce",
      "inputs": [],
      "outputs": [
        {
          "name": "",
          "type": "uint256",
          "internalType": "uint256"
        }
      ],
      "stateMutability": "view"
    },
    {
      "type": "function",
      "name": "owner",
      "inputs": [],
      "outputs": [
        {
          "name": "",
          "type": "address",
          "internalType": "address"
        }
      ],
      "stateMutability": "view"
    },
    {
      "type": "function",
      "name": "renounceOwnership",
      "inputs": [],
      "outputs": [],
      "stateMutability": "nonpayable"
    },
    {
      "type": "function",
      "name": "transferERC20",
      "inputs": [
        {
          "name": "target",
          "type": "address",
          "internalType": "address"
        },
        {
          "name": "amount",
          "type": "uint256",
          "internalType": "uint256"
        },
        {
          "name": "tokenAddress",
          "type": "address",
          "internalType": "address"
        }
      ],
      "outputs": [],
      "stateMutability": "nonpayable"
    },
    {
      "type": "function",
      "name": "transferEtherWithCall",
      "inputs": [
        {
          "name": "target",
          "type": "address",
          "internalType": "address"
        },
        {
          "name": "callData",
          "type": "bytes",
          "internalType": "bytes"
        }
      ],
      "outputs": [],
      "stateMutability": "payable"
    },
    {
      "type": "function",
      "name": "transferOwnership",
      "inputs": [
        {
          "name": "newOwner",
          "type": "address",
          "internalType": "address"
        }
      ],
      "outputs": [],
      "stateMutability": "nonpayable"
    },
    {
      "type": "function",
      "name": "validateUserOp",
      "inputs": [
        {
          "name": "userOp",
          "type": "tuple",
          "internalType": "struct PackedUserOperation",
          "components": [
            {
              "name": "sender",
              "type": "address",
              "internalType": "address"
            },
            {
              "name": "nonce",
              "type": "uint256",
              "internalType": "uint256"
            },
            {
              "name": "initCode",
              "type": "bytes",
              "internalType": "bytes"
            },
            {
              "name": "callData",
              "type": "bytes",
              "internalType": "bytes"
            },
            {
              "name": "accountGasLimits",
              "type": "bytes32",
              "internalType": "bytes32"
            },
            {
              "name": "preVerificationGas",
              "type": "uint256",
              "internalType": "uint256"
            },
            {
              "name": "gasFees",
              "type": "bytes32",
              "internalType": "bytes32"
            },
            {
              "name": "paymasterAndData",
              "type": "bytes",
              "internalType": "bytes"
            },
            {
              "name": "signature",
              "type": "bytes",
              "internalType": "bytes"
            }
          ]
        },
        {
          "name": "userOpHash",
          "type": "bytes32",
          "internalType": "bytes32"
        },
        {
          "name": "missingAccountFunds",
          "type": "uint256",
          "internalType": "uint256"
        }
      ],
      "outputs": [
        {
          "name": "validationData",
          "type": "uint256",
          "internalType": "uint256"
        }
      ],
      "stateMutability": "nonpayable"
    },
    {
      "type": "event",
      "name": "ERC20Transfer",
      "inputs": [
        {
          "name": "token",
          "type": "address",
          "indexed": true,
          "internalType": "address"
        },
        {
          "name": "to",
          "type": "address",
          "indexed": true,
          "internalType": "address"
        },
        {
          "name": "amount",
          "type": "uint256",
          "indexed": false,
          "internalType": "uint256"
        }
      ],
      "anonymous": false
    },
    {
      "type": "event",
      "name": "EtherTransfer",
      "inputs": [
        {
          "name": "to",
          "type": "address",
          "indexed": true,
          "internalType": "address"
        },
        {
          "name": "amount",
          "type": "uint256",
          "indexed": false,
          "internalType": "uint256"
        },
        {
          "name": "data",
          "type": "bytes",
          "indexed": false,
          "internalType": "bytes"
        }
      ],
      "anonymous": false
    },
    {
      "type": "event",
      "name": "OwnershipTransferred",
      "inputs": [
        {
          "name": "previousOwner",
          "type": "address",
          "indexed": true,
          "internalType": "address"
        },
        {
          "name": "newOwner",
          "type": "address",
          "indexed": true,
          "internalType": "address"
        }
      ],
      "anonymous": false
    },
    {
      "type": "error",
      "name": "ECDSAInvalidSignature",
      "inputs": []
    },
    {
      "type": "error",
      "name": "ECDSAInvalidSignatureLength",
      "inputs": [
        {
          "name": "length",
          "type": "uint256",
          "internalType": "uint256"
        }
      ]
    },
    {
      "type": "error",
      "name": "ECDSAInvalidSignatureS",
      "inputs": [
        {
          "name": "s",
          "type": "bytes32",
          "internalType": "bytes32"
        }
      ]
    },
    {
      "type": "error",
      "name": "NexaAccount__InvalidNonce",
      "inputs": []
    },
    {
      "type": "error",
      "name": "NexaAccount__NotCalledByEntryPoint",
      "inputs": []
    },
    {
      "type": "error",
      "name": "NexaAccount__TransactionFailed",
      "inputs": []
    },
    {
      "type": "error",
      "name": "OwnableInvalidOwner",
      "inputs": [
        {
          "name": "owner",
          "type": "address",
          "internalType": "address"
        }
      ]
    },
    {
      "type": "error",
      "name": "OwnableUnauthorizedAccount",
      "inputs": [
        {
          "name": "account",
          "type": "address",
          "internalType": "address"
        }
      ]
    },
    {
      "type": "error",
      "name": "SafeERC20FailedOperation",
      "inputs": [
        {
          "name": "token",
          "type": "address",
          "internalType": "address"
        }
      ]
    }
  ],
  "bytecode": {
    "object": "0x60a0346100fb57601f6109e938819003918201601f19168301916001600160401b038311848410176100ff5780849260409485528339810103126100fb5761004681610113565b906001600160a01b039061005c90602001610113565b169081156100e8575f80546001600160a01b031981168417825560405193916001600160a01b03909116907f8be0079c531659141344cd1fd0a4f28419497f9722a3daafe3b4186f6b6457e09080a36001600160a01b03166080526108c1908161012882396080518181816101630152818161022e015281816103730152818161048f01526104f50152f35b631e4fbdf760e01b5f525f60045260245ffd5b5f80fd5b634e487b7160e01b5f52604160045260245ffd5b51906001600160a01b03821682036100fb5756fe6080604052600436101561001a575b3615610018575f80fd5b005b5f3560e01c806319822f7c146104be57806344ab613f1461047a578063715018a6146104235780638b967a3b1461032b5780638da5cb5b1461030457806397e10a79146101fa578063affed0e0146101dd578063b61d27f61461010a5763f2fde38b0361000e57346101065760203660031901126101065761009a6105c8565b6100a2610735565b6001600160a01b031680156100f3575f80546001600160a01b03198116831782556001600160a01b0316907f8be0079c531659141344cd1fd0a4f28419497f9722a3daafe3b4186f6b6457e09080a3005b631e4fbdf760e01b5f525f60045260245ffd5b5f80fd5b34610106576060366003190112610106576101236105c8565b60443567ffffffffffffffff811161010657366023820112156101065780600401359167ffffffffffffffff8311610106573660248484010111610106577f00000000000000000000000000000000000000000000000000000000000000006001600160a01b031633036101ce5760245f939283859460405193849301833781018481520391602435905af16101b7610666565b50156101bf57005b636da0b3d960e11b5f5260045ffd5b633574e45960e01b5f5260045ffd5b34610106575f366003190112610106576020600154604051908152f35b34610106576060366003190112610106576102136105c8565b6044356001600160a01b0381169060243590829003610106577f00000000000000000000000000000000000000000000000000000000000000006001600160a01b031633036101ce5760205f604051948286019063a9059cbb60e01b825260018060a01b031695866024820152846044820152604481526102956064826105de565b519082865af1156102f9575f513d6102f05750813b155b6102dd5760207fe59fdd36d0d223c0c7d996db7ad796880f45e1936cb0bb7ac102e7082e03148791604051908152a3005b50635274afe760e01b5f5260045260245ffd5b600114156102ac565b6040513d5f823e3d90fd5b34610106575f366003190112610106575f546040516001600160a01b039091168152602090f35b60403660031901126101065761033f6105c8565b60243567ffffffffffffffff8111610106573660238201121561010657610370903690602481600401359101610630565b907f00000000000000000000000000000000000000000000000000000000000000006001600160a01b031633036101ce5781516001600160a01b03909116915f91829160200134855af16103c2610666565b90156101bf57602060607ff4534482c24aa5bd3b032f0437c50b28f2ea18f0a23967b2576a6cd39a920cfa926040519283913483526040828401528051918291826040860152018484015e5f828201840152601f01601f19168101030190a2005b34610106575f3660031901126101065761043b610735565b5f80546001600160a01b0319811682556001600160a01b03167f8be0079c531659141344cd1fd0a4f28419497f9722a3daafe3b4186f6b6457e08280a3005b34610106575f366003190112610106576040517f00000000000000000000000000000000000000000000000000000000000000006001600160a01b03168152602090f35b346101065760603660031901126101065760043567ffffffffffffffff8111610106576101206003198236030112610106576044357f00000000000000000000000000000000000000000000000000000000000000006001600160a01b031633036101ce576024610533813584600401610695565b926001549182910135036105b95760010160015580610558575b602082604051908152f35b5f80808093335af1610568610666565b5015610574578161054d565b60405162461bcd60e51b815260206004820152601960248201527f4661696c656420746f2066756e6420456e747279506f696e74000000000000006044820152606490fd5b630562b20160e11b5f5260045ffd5b600435906001600160a01b038216820361010657565b90601f8019910116810190811067ffffffffffffffff82111761060057604052565b634e487b7160e01b5f52604160045260245ffd5b67ffffffffffffffff811161060057601f01601f191660200190565b92919261063c82610614565b9161064a60405193846105de565b829481845281830111610106578281602093845f960137010152565b3d15610690573d9061067782610614565b9161068560405193846105de565b82523d5f602084013e565b606090565b907f19457468657265756d205369676e6564204d6573736167653a0a3332000000005f52601c52603c5f209061010081013590601e198136030182121561010657019081359167ffffffffffffffff8311610106576020019082360382136101065761070961070f92610718943691610630565b9061075b565b90929192610795565b5f546001600160a01b03908116911603610730575f90565b600190565b5f546001600160a01b0316330361074857565b63118cdaa760e01b5f523360045260245ffd5b815191906041830361078b576107849250602082015190606060408401519301515f1a90610809565b9192909190565b50505f9160029190565b60048110156107f557806107a7575050565b600181036107be5763f645eedf60e01b5f5260045ffd5b600281036107d9575063fce698f760e01b5f5260045260245ffd5b6003146107e35750565b6335e2f38360e21b5f5260045260245ffd5b634e487b7160e01b5f52602160045260245ffd5b91907f7fffffffffffffffffffffffffffffff5d576e7357a4501ddfe92f46681b20a08411610880579160209360809260ff5f9560405194855216868401526040830152606082015282805260015afa156102f9575f516001600160a01b0381161561087657905f905f90565b505f906001905f90565b5050505f916003919056fea2646970667358221220030dcd8b1d08d75cf1299e16c1e2d04cfc9ec213c2307ea6f9e132101da39fea64736f6c634300081c0033",
    "linkReferences": {}
  },
  "methodIdentifiers": {
    "execute(address,uint256,bytes)": "b61d27f6",
    "getEntryPoint()": "44ab613f",
    "nonce()": "affed0e0",
    "owner()": "8da5cb5b",
    "renounceOwnership()": "715018a6",
    "transferERC20(address,uint256,address)": "97e10a79",
    "transferEtherWithCall(address,bytes)": "8b967a3b",
    "transferOwnership(address)": "f2fde38b",
    "validateUserOp((address,uint256,bytes,bytes,bytes32,uint256,bytes32,bytes,bytes),bytes32,uint256)": "19822f7c"
  },
  "id": 43
}