{
  "abi": [
    {
      "type": "function",
      "name": "createAccount",
      "inputs": [
        {
          "name": "_entryPoint",
          "type": "address",
          "internalType": "address"
        },
        {
          "name": "owner",
          "type": "address",
          "internalType": "address"
        }
      ],
      "outputs": [
        {
          "name": "",
          "type": "address",
          "internalType": "address"
        }
      ],
      "stateMutability": "nonpayable"
    },
    {
      "type": "event",
      "name": "AccountCreated",
      "inputs": [
        {
          "name": "account",
          "type": "address",
          "indexed": false,
          "internalType": "address"
        },
        {
          "name": "owner",
          "type": "address",
          "indexed": false,
          "internalType": "address"
        }
      ],
      "anonymous": false
    }
  ],
  "bytecode": {
    "object": "0x60808060405234601557610a49908161001a8239f35b5f80fdfe6080806040526004361015610012575f80fd5b5f3560e01c63133572ba14610025575f80fd5b3461011557604036600319011261011557600435906001600160a01b038216820361011557602435916001600160a01b0383168303610115576108fa8083019083821067ffffffffffffffff83111761010157839261009f92869261011a86396001600160a01b0391821681529116602082015260400190565b03905ff09081156100f657604080516001600160a01b0393841680825292909316602080850191909152927fac631f3001b55ea1509cf3d7e74898f85392a61a76e8149181ae1259622dabc89190a1604051908152f35b6040513d5f823e3d90fd5b634e487b7160e01b5f52604160045260245ffd5b5f80fdfe60a0346100f457601f6108fa38819003918201601f19168301916001600160401b038311848410176100f85780849260409485528339810103126100f4576100468161010c565b906001600160a01b039061005c9060200161010c565b169081156100e1575f80546001600160a01b031981168417825560405193916001600160a01b03909116907f8be0079c531659141344cd1fd0a4f28419497f9722a3daafe3b4186f6b6457e09080a36001600160a01b03166080526107d9908161012182396080518181816101280152818161027c015281816103a7015261040d0152f35b631e4fbdf760e01b5f525f60045260245ffd5b5f80fd5b634e487b7160e01b5f52604160045260245ffd5b51906001600160a01b03821682036100f45756fe6080604052600436101561001a575b3615610018575f80fd5b005b5f3560e01c806319822f7c146103d657806344ab613f14610392578063715018a61461033b5780638b967a3b146102345780638da5cb5b1461020d57806397e10a79146100f45763f2fde38b0361000e57346100f05760203660031901126100f0576100846104e0565b61008c61064d565b6001600160a01b031680156100dd575f80546001600160a01b03198116831782556001600160a01b0316907f8be0079c531659141344cd1fd0a4f28419497f9722a3daafe3b4186f6b6457e09080a3005b631e4fbdf760e01b5f525f60045260245ffd5b5f80fd5b346100f05760603660031901126100f05761010d6104e0565b6044356001600160a01b03811690602435908290036100f0577f00000000000000000000000000000000000000000000000000000000000000006001600160a01b031633036101fe5760205f604051948286019063a9059cbb60e01b825260018060a01b0316958660248201528460448201526044815261018f6064826104f6565b519082865af1156101f3575f513d6101ea5750813b155b6101d75760207fe59fdd36d0d223c0c7d996db7ad796880f45e1936cb0bb7ac102e7082e03148791604051908152a3005b50635274afe760e01b5f5260045260245ffd5b600114156101a6565b6040513d5f823e3d90fd5b633574e45960e01b5f5260045ffd5b346100f0575f3660031901126100f0575f546040516001600160a01b039091168152602090f35b60403660031901126100f0576102486104e0565b60243567ffffffffffffffff81116100f057366023820112156100f057610279903690602481600401359101610548565b907f00000000000000000000000000000000000000000000000000000000000000006001600160a01b031633036101fe5781516001600160a01b03909116915f91829160200134855af16102cb61057e565b901561032c57602060607ff4534482c24aa5bd3b032f0437c50b28f2ea18f0a23967b2576a6cd39a920cfa926040519283913483526040828401528051918291826040860152018484015e5f828201840152601f01601f19168101030190a2005b636da0b3d960e11b5f5260045ffd5b346100f0575f3660031901126100f05761035361064d565b5f80546001600160a01b0319811682556001600160a01b03167f8be0079c531659141344cd1fd0a4f28419497f9722a3daafe3b4186f6b6457e08280a3005b346100f0575f3660031901126100f0576040517f00000000000000000000000000000000000000000000000000000000000000006001600160a01b03168152602090f35b346100f05760603660031901126100f05760043567ffffffffffffffff81116100f05761012060031982360301126100f0576044357f00000000000000000000000000000000000000000000000000000000000000006001600160a01b031633036101fe57602461044b8135846004016105ad565b926001549182910135036104d15760010160015580610470575b602082604051908152f35b5f80808093335af161048061057e565b501561048c5781610465565b60405162461bcd60e51b815260206004820152601960248201527f4661696c656420746f2066756e6420456e747279506f696e74000000000000006044820152606490fd5b630562b20160e11b5f5260045ffd5b600435906001600160a01b03821682036100f057565b90601f8019910116810190811067ffffffffffffffff82111761051857604052565b634e487b7160e01b5f52604160045260245ffd5b67ffffffffffffffff811161051857601f01601f191660200190565b9291926105548261052c565b9161056260405193846104f6565b8294818452818301116100f0578281602093845f960137010152565b3d156105a8573d9061058f8261052c565b9161059d60405193846104f6565b82523d5f602084013e565b606090565b907f19457468657265756d205369676e6564204d6573736167653a0a3332000000005f52601c52603c5f209061010081013590601e19813603018212156100f057019081359167ffffffffffffffff83116100f0576020019082360382136100f05761062161062792610630943691610548565b90610673565b909291926106ad565b5f546001600160a01b03908116911603610648575f90565b600190565b5f546001600160a01b0316330361066057565b63118cdaa760e01b5f523360045260245ffd5b81519190604183036106a35761069c9250602082015190606060408401519301515f1a90610721565b9192909190565b50505f9160029190565b600481101561070d57806106bf575050565b600181036106d65763f645eedf60e01b5f5260045ffd5b600281036106f1575063fce698f760e01b5f5260045260245ffd5b6003146106fb5750565b6335e2f38360e21b5f5260045260245ffd5b634e487b7160e01b5f52602160045260245ffd5b91907f7fffffffffffffffffffffffffffffff5d576e7357a4501ddfe92f46681b20a08411610798579160209360809260ff5f9560405194855216868401526040830152606082015282805260015afa156101f3575f516001600160a01b0381161561078e57905f905f90565b505f906001905f90565b5050505f916003919056fea26469706673582212207c9efc13e94b9dcab6eb381e7cdfd15190e9aaa559f006064748bef9a8408e9a64736f6c634300081c0033a264697066735822122011c3d13e32edaa6a1599d90894a97cc0d3508ee340525623550aa90da737ac6964736f6c634300081c0033",
    "linkReferences": {}
  },
  "methodIdentifiers": {
    "createAccount(address,address)": "133572ba"
  },
  "id": 44
}